{
  "_format": "hh-sol-artifact-1",
  "contractName": "ContractNFT",
  "sourceName": "contracts/ContractNFT.sol",
  "abi": [
    {
      "inputs": [],
      "stateMutability": "nonpayable",
      "type": "constructor"
    },
    {
      "inputs": [],
      "name": "ERC721EnumerableForbiddenBatchMint",
      "type": "error"
    },
    {
      "inputs": [
        {
          "internalType": "address",
          "name": "sender",
          "type": "address"
        },
        {
          "internalType": "uint256",
          "name": "tokenId",
          "type": "uint256"
        },
        {
          "internalType": "address",
          "name": "owner",
          "type": "address"
        }
      ],
      "name": "ERC721IncorrectOwner",
      "type": "error"
    },
    {
      "inputs": [
        {
          "internalType": "address",
          "name": "operator",
          "type": "address"
        },
        {
          "internalType": "uint256",
          "name": "tokenId",
          "type": "uint256"
        }
      ],
      "name": "ERC721InsufficientApproval",
      "type": "error"
    },
    {
      "inputs": [
        {
          "internalType": "address",
          "name": "approver",
          "type": "address"
        }
      ],
      "name": "ERC721InvalidApprover",
      "type": "error"
    },
    {
      "inputs": [
        {
          "internalType": "address",
          "name": "operator",
          "type": "address"
        }
      ],
      "name": "ERC721InvalidOperator",
      "type": "error"
    },
    {
      "inputs": [
        {
          "internalType": "address",
          "name": "owner",
          "type": "address"
        }
      ],
      "name": "ERC721InvalidOwner",
      "type": "error"
    },
    {
      "inputs": [
        {
          "internalType": "address",
          "name": "receiver",
          "type": "address"
        }
      ],
      "name": "ERC721InvalidReceiver",
      "type": "error"
    },
    {
      "inputs": [
        {
          "internalType": "address",
          "name": "sender",
          "type": "address"
        }
      ],
      "name": "ERC721InvalidSender",
      "type": "error"
    },
    {
      "inputs": [
        {
          "internalType": "uint256",
          "name": "tokenId",
          "type": "uint256"
        }
      ],
      "name": "ERC721NonexistentToken",
      "type": "error"
    },
    {
      "inputs": [
        {
          "internalType": "address",
          "name": "owner",
          "type": "address"
        },
        {
          "internalType": "uint256",
          "name": "index",
          "type": "uint256"
        }
      ],
      "name": "ERC721OutOfBoundsIndex",
      "type": "error"
    },
    {
      "anonymous": false,
      "inputs": [
        {
          "indexed": true,
          "internalType": "address",
          "name": "owner",
          "type": "address"
        },
        {
          "indexed": true,
          "internalType": "address",
          "name": "approved",
          "type": "address"
        },
        {
          "indexed": true,
          "internalType": "uint256",
          "name": "tokenId",
          "type": "uint256"
        }
      ],
      "name": "Approval",
      "type": "event"
    },
    {
      "anonymous": false,
      "inputs": [
        {
          "indexed": true,
          "internalType": "address",
          "name": "owner",
          "type": "address"
        },
        {
          "indexed": true,
          "internalType": "address",
          "name": "operator",
          "type": "address"
        },
        {
          "indexed": false,
          "internalType": "bool",
          "name": "approved",
          "type": "bool"
        }
      ],
      "name": "ApprovalForAll",
      "type": "event"
    },
    {
      "anonymous": false,
      "inputs": [
        {
          "indexed": true,
          "internalType": "address",
          "name": "from",
          "type": "address"
        },
        {
          "indexed": true,
          "internalType": "address",
          "name": "to",
          "type": "address"
        },
        {
          "indexed": true,
          "internalType": "uint256",
          "name": "tokenId",
          "type": "uint256"
        }
      ],
      "name": "Transfer",
      "type": "event"
    },
    {
      "inputs": [
        {
          "internalType": "address",
          "name": "to",
          "type": "address"
        },
        {
          "internalType": "uint256",
          "name": "tokenId",
          "type": "uint256"
        }
      ],
      "name": "approve",
      "outputs": [],
      "stateMutability": "nonpayable",
      "type": "function"
    },
    {
      "inputs": [
        {
          "internalType": "address",
          "name": "owner",
          "type": "address"
        }
      ],
      "name": "balanceOf",
      "outputs": [
        {
          "internalType": "uint256",
          "name": "",
          "type": "uint256"
        }
      ],
      "stateMutability": "view",
      "type": "function"
    },
    {
      "inputs": [
        {
          "internalType": "uint256",
          "name": "tokenId",
          "type": "uint256"
        }
      ],
      "name": "closeJob",
      "outputs": [],
      "stateMutability": "nonpayable",
      "type": "function"
    },
    {
      "inputs": [],
      "name": "gestor",
      "outputs": [
        {
          "internalType": "address",
          "name": "",
          "type": "address"
        }
      ],
      "stateMutability": "view",
      "type": "function"
    },
    {
      "inputs": [
        {
          "internalType": "uint256",
          "name": "tokenId",
          "type": "uint256"
        }
      ],
      "name": "getApproved",
      "outputs": [
        {
          "internalType": "address",
          "name": "",
          "type": "address"
        }
      ],
      "stateMutability": "view",
      "type": "function"
    },
    {
      "inputs": [
        {
          "internalType": "uint256",
          "name": "jobId",
          "type": "uint256"
        }
      ],
      "name": "getTokensByJob",
      "outputs": [
        {
          "internalType": "uint256[]",
          "name": "",
          "type": "uint256[]"
        }
      ],
      "stateMutability": "view",
      "type": "function"
    },
    {
      "inputs": [
        {
          "internalType": "address",
          "name": "owner",
          "type": "address"
        },
        {
          "internalType": "address",
          "name": "operator",
          "type": "address"
        }
      ],
      "name": "isApprovedForAll",
      "outputs": [
        {
          "internalType": "bool",
          "name": "",
          "type": "bool"
        }
      ],
      "stateMutability": "view",
      "type": "function"
    },
    {
      "inputs": [
        {
          "internalType": "uint256",
          "name": "",
          "type": "uint256"
        },
        {
          "internalType": "uint256",
          "name": "",
          "type": "uint256"
        }
      ],
      "name": "jobToTokens",
      "outputs": [
        {
          "internalType": "uint256",
          "name": "",
          "type": "uint256"
        }
      ],
      "stateMutability": "view",
      "type": "function"
    },
    {
      "inputs": [
        {
          "internalType": "uint256",
          "name": "",
          "type": "uint256"
        }
      ],
      "name": "jobs",
      "outputs": [
        {
          "internalType": "uint256",
          "name": "jobId",
          "type": "uint256"
        },
        {
          "internalType": "address",
          "name": "owner",
          "type": "address"
        },
        {
          "internalType": "uint8",
          "name": "role",
          "type": "uint8"
        },
        {
          "internalType": "bool",
          "name": "active",
          "type": "bool"
        }
      ],
      "stateMutability": "view",
      "type": "function"
    },
    {
      "inputs": [
        {
          "internalType": "address",
          "name": "to",
          "type": "address"
        },
        {
          "internalType": "uint256",
          "name": "jobId",
          "type": "uint256"
        },
        {
          "internalType": "uint8",
          "name": "role",
          "type": "uint8"
        }
      ],
      "name": "mint",
      "outputs": [
        {
          "internalType": "uint256",
          "name": "",
          "type": "uint256"
        }
      ],
      "stateMutability": "nonpayable",
      "type": "function"
    },
    {
      "inputs": [],
      "name": "name",
      "outputs": [
        {
          "internalType": "string",
          "name": "",
          "type": "string"
        }
      ],
      "stateMutability": "view",
      "type": "function"
    },
    {
      "inputs": [],
      "name": "nftCount",
      "outputs": [
        {
          "internalType": "uint256",
          "name": "",
          "type": "uint256"
        }
      ],
      "stateMutability": "view",
      "type": "function"
    },
    {
      "inputs": [
        {
          "internalType": "uint256",
          "name": "tokenId",
          "type": "uint256"
        }
      ],
      "name": "ownerOf",
      "outputs": [
        {
          "internalType": "address",
          "name": "",
          "type": "address"
        }
      ],
      "stateMutability": "view",
      "type": "function"
    },
    {
      "inputs": [
        {
          "internalType": "address",
          "name": "from",
          "type": "address"
        },
        {
          "internalType": "address",
          "name": "to",
          "type": "address"
        },
        {
          "internalType": "uint256",
          "name": "tokenId",
          "type": "uint256"
        }
      ],
      "name": "safeTransferFrom",
      "outputs": [],
      "stateMutability": "nonpayable",
      "type": "function"
    },
    {
      "inputs": [
        {
          "internalType": "address",
          "name": "from",
          "type": "address"
        },
        {
          "internalType": "address",
          "name": "to",
          "type": "address"
        },
        {
          "internalType": "uint256",
          "name": "tokenId",
          "type": "uint256"
        },
        {
          "internalType": "bytes",
          "name": "data",
          "type": "bytes"
        }
      ],
      "name": "safeTransferFrom",
      "outputs": [],
      "stateMutability": "nonpayable",
      "type": "function"
    },
    {
      "inputs": [
        {
          "internalType": "address",
          "name": "operator",
          "type": "address"
        },
        {
          "internalType": "bool",
          "name": "approved",
          "type": "bool"
        }
      ],
      "name": "setApprovalForAll",
      "outputs": [],
      "stateMutability": "nonpayable",
      "type": "function"
    },
    {
      "inputs": [
        {
          "internalType": "address",
          "name": "_gestor",
          "type": "address"
        }
      ],
      "name": "setGestor",
      "outputs": [],
      "stateMutability": "nonpayable",
      "type": "function"
    },
    {
      "inputs": [
        {
          "internalType": "bytes4",
          "name": "interfaceId",
          "type": "bytes4"
        }
      ],
      "name": "supportsInterface",
      "outputs": [
        {
          "internalType": "bool",
          "name": "",
          "type": "bool"
        }
      ],
      "stateMutability": "view",
      "type": "function"
    },
    {
      "inputs": [],
      "name": "symbol",
      "outputs": [
        {
          "internalType": "string",
          "name": "",
          "type": "string"
        }
      ],
      "stateMutability": "view",
      "type": "function"
    },
    {
      "inputs": [
        {
          "internalType": "uint256",
          "name": "index",
          "type": "uint256"
        }
      ],
      "name": "tokenByIndex",
      "outputs": [
        {
          "internalType": "uint256",
          "name": "",
          "type": "uint256"
        }
      ],
      "stateMutability": "view",
      "type": "function"
    },
    {
      "inputs": [
        {
          "internalType": "address",
          "name": "owner",
          "type": "address"
        },
        {
          "internalType": "uint256",
          "name": "index",
          "type": "uint256"
        }
      ],
      "name": "tokenOfOwnerByIndex",
      "outputs": [
        {
          "internalType": "uint256",
          "name": "",
          "type": "uint256"
        }
      ],
      "stateMutability": "view",
      "type": "function"
    },
    {
      "inputs": [
        {
          "internalType": "uint256",
          "name": "tokenId",
          "type": "uint256"
        }
      ],
      "name": "tokenURI",
      "outputs": [
        {
          "internalType": "string",
          "name": "",
          "type": "string"
        }
      ],
      "stateMutability": "view",
      "type": "function"
    },
    {
      "inputs": [],
      "name": "totalSupply",
      "outputs": [
        {
          "internalType": "uint256",
          "name": "",
          "type": "uint256"
        }
      ],
      "stateMutability": "view",
      "type": "function"
    },
    {
      "inputs": [
        {
          "internalType": "address",
          "name": "from",
          "type": "address"
        },
        {
          "internalType": "address",
          "name": "to",
          "type": "address"
        },
        {
          "internalType": "uint256",
          "name": "tokenId",
          "type": "uint256"
        }
      ],
      "name": "transferFrom",
      "outputs": [],
      "stateMutability": "nonpayable",
      "type": "function"
    }
  ],
  "bytecode": "0x608060405234801561000f575f5ffd5b5060405180604001604052806012815260200171119c99595b185b98d94810dbdb9d1c9858dd60721b815250604051806040016040528060048152602001632321a7a760e11b815250815f90816100669190610113565b5060016100738282610113565b5050506101cd565b634e487b7160e01b5f52604160045260245ffd5b600181811c908216806100a357607f821691505b6020821081036100c157634e487b7160e01b5f52602260045260245ffd5b50919050565b601f82111561010e57805f5260205f20601f840160051c810160208510156100ec5750805b601f840160051c820191505b8181101561010b575f81556001016100f8565b50505b505050565b81516001600160401b0381111561012c5761012c61007b565b6101408161013a845461008f565b846100c7565b6020601f821160018114610172575f831561015b5750848201515b5f19600385901b1c1916600184901b17845561010b565b5f84815260208120601f198516915b828110156101a15787850151825560209485019460019092019101610181565b50848210156101be57868401515f19600387901b60f8161c191681555b50505050600190811b01905550565b611791806101da5f395ff3fe608060405234801561000f575f5ffd5b5060043610610153575f3560e01c80633b03e842116100bf57806370a082311161007957806370a082311461034857806395d89b411461035b578063a22cb46514610363578063b88d4fde14610376578063c87b56dd14610389578063e985e9c51461039c575f5ffd5b80633b03e842146102d657806342842e0e146102e95780634f6ccce7146102fc5780635bc1eed01461030f5780636112e8ac146103225780636352211e14610335575f5ffd5b8063180aedf311610110578063180aedf3146101fe57806318160ddd146102755780631e01abca1461027d57806323b872dd146102905780632f745c59146102a3578063376494cc146102b6575f5ffd5b806301ffc9a71461015757806306fdde031461017f578063081812fc14610194578063095ea7b3146101bf5780630af2c6ca146101d45780631805dc0c146101eb575b5f5ffd5b61016a610165366004611333565b6103af565b60405190151581526020015b60405180910390f35b6101876103d9565b604051610176919061137c565b6101a76101a236600461138e565b610468565b6040516001600160a01b039091168152602001610176565b6101d26101cd3660046113c0565b61048f565b005b6101dd600b5481565b604051908152602001610176565b600a546101a7906001600160a01b031681565b61024361020c36600461138e565b600c6020525f9081526040902080546001909101546001600160a01b0381169060ff600160a01b8204811691600160a81b90041684565b604080519485526001600160a01b03909316602085015260ff9091169183019190915215156060820152608001610176565b6008546101dd565b6101d261028b36600461138e565b61049e565b6101d261029e3660046113e8565b61050b565b6101dd6102b13660046113c0565b610594565b6102c96102c436600461138e565b6105f7565b6040516101769190611422565b6101dd6102e4366004611464565b610656565b6101d26102f73660046113e8565b610681565b6101dd61030a36600461138e565b6106a0565b6101d261031d366004611484565b6106f5565b6101dd61033036600461149d565b61075e565b6101a761034336600461138e565b610881565b6101dd610356366004611484565b61088b565b6101876108d0565b6101d26103713660046114df565b6108df565b6101d261038436600461152c565b6108ea565b61018761039736600461138e565b610902565b61016a6103aa366004611609565b610973565b5f6001600160e01b0319821663780e9d6360e01b14806103d357506103d3826109a0565b92915050565b60605f80546103e79061163a565b80601f01602080910402602001604051908101604052809291908181526020018280546104139061163a565b801561045e5780601f106104355761010080835404028352916020019161045e565b820191905f5260205f20905b81548152906001019060200180831161044157829003601f168201915b5050505050905090565b5f610472826109ef565b505f828152600460205260409020546001600160a01b03166103d3565b61049a828233610a27565b5050565b600a546001600160a01b031633146104ee5760405162461bcd60e51b815260206004820152600e60248201526d139bdd08185d5d1a1bdc9a5e995960921b60448201526064015b60405180910390fd5b5f908152600c60205260409020600101805460ff60a81b19169055565b6001600160a01b03821661053457604051633250574960e11b81525f60048201526024016104e5565b5f610540838333610a34565b9050836001600160a01b0316816001600160a01b03161461058e576040516364283d7b60e01b81526001600160a01b03808616600483015260248201849052821660448201526064016104e5565b50505050565b5f61059e8361088b565b82106105cf5760405163295f44f760e21b81526001600160a01b0384166004820152602481018390526044016104e5565b506001600160a01b03919091165f908152600660209081526040808320938352929052205490565b5f818152600d602090815260409182902080548351818402810184019094528084526060939283018282801561064a57602002820191905f5260205f20905b815481526020019060010190808311610636575b50505050509050919050565b600d602052815f5260405f20818154811061066f575f80fd5b905f5260205f20015f91509150505481565b61069b83838360405180602001604052805f8152506108ea565b505050565b5f6106aa60085490565b82106106d25760405163295f44f760e21b81525f6004820152602481018390526044016104e5565b600882815481106106e5576106e5611672565b905f5260205f2001549050919050565b600a546001600160a01b03161561073c5760405162461bcd60e51b815260206004820152600b60248201526a105b1c9958591e481cd95d60aa1b60448201526064016104e5565b600a80546001600160a01b0319166001600160a01b0392909216919091179055565b600a545f906001600160a01b031633146107ab5760405162461bcd60e51b815260206004820152600e60248201526d139bdd08185d5d1a1bdc9a5e995960921b60448201526064016104e5565b6107b784600b54610b07565b604080516080810182528481526001600160a01b03808716602080840191825260ff808816858701908152600160608701818152600b80545f908152600c87528a812099518a5596519883018054945192511515600160a81b0260ff60a81b1993909616600160a01b026001600160a81b03199095169990981698909817929092179190911691909117909355878252600d8152938120835481549384018255908252938120909101929092558054918291906108738361169a565b909155509095945050505050565b5f6103d3826109ef565b5f6001600160a01b0382166108b5576040516322718ad960e21b81525f60048201526024016104e5565b506001600160a01b03165f9081526003602052604090205490565b6060600180546103e79061163a565b61049a338383610b20565b6108f584848461050b565b61058e3385858585610be7565b606061090d826109ef565b505f61092360408051602081019091525f815290565b90505f8151116109415760405180602001604052805f81525061096c565b8061094b84610d0f565b60405160200161095c9291906116c9565b6040516020818303038152906040525b9392505050565b6001600160a01b039182165f90815260056020908152604080832093909416825291909152205460ff1690565b5f6001600160e01b031982166380ac58cd60e01b14806109d057506001600160e01b03198216635b5e139f60e01b145b806103d357506301ffc9a760e01b6001600160e01b03198316146103d3565b5f818152600260205260408120546001600160a01b0316806103d357604051637e27328960e01b8152600481018490526024016104e5565b61069b8383836001610d9f565b5f5f610a41858585610ea3565b90506001600160a01b038116610a9d57610a9884600880545f838152600960205260408120829055600182018355919091527ff3f7a9fe364faab93b216da50a3214154f22a0a2b415b23a84c8169e8b636ee30155565b610ac0565b846001600160a01b0316816001600160a01b031614610ac057610ac08185610f95565b6001600160a01b038516610adc57610ad784611012565b610aff565b846001600160a01b0316816001600160a01b031614610aff57610aff85856110b9565b949350505050565b61049a828260405180602001604052805f815250611107565b6001600160a01b038316610b495760405163a9fbf51f60e01b81525f60048201526024016104e5565b6001600160a01b038216610b7b57604051630b61174360e31b81526001600160a01b03831660048201526024016104e5565b6001600160a01b038381165f81815260056020908152604080832094871680845294825291829020805460ff191686151590811790915591519182527f17307eab39ab6107e8899845ad3d59bd9653f200f220920489ca2b5937696c31910160405180910390a3505050565b6001600160a01b0383163b15610d0857604051630a85bd0160e11b81526001600160a01b0384169063150b7a0290610c299088908890879087906004016116dd565b6020604051808303815f875af1925050508015610c63575060408051601f3d908101601f19168201909252610c6091810190611719565b60015b610cca573d808015610c90576040519150601f19603f3d011682016040523d82523d5f602084013e610c95565b606091505b5080515f03610cc257604051633250574960e11b81526001600160a01b03851660048201526024016104e5565b805160208201fd5b6001600160e01b03198116630a85bd0160e11b14610d0657604051633250574960e11b81526001600160a01b03851660048201526024016104e5565b505b5050505050565b60605f610d1b8361111e565b60010190505f8167ffffffffffffffff811115610d3a57610d3a611518565b6040519080825280601f01601f191660200182016040528015610d64576020820181803683370190505b5090508181016020015b5f19016f181899199a1a9b1b9c1cb0b131b232b360811b600a86061a8153600a8504945084610d6e57509392505050565b8080610db357506001600160a01b03821615155b15610e74575f610dc2846109ef565b90506001600160a01b03831615801590610dee5750826001600160a01b0316816001600160a01b031614155b8015610e015750610dff8184610973565b155b15610e2a5760405163a9fbf51f60e01b81526001600160a01b03841660048201526024016104e5565b8115610e725783856001600160a01b0316826001600160a01b03167f8c5be1e5ebec7d5bd14f71427d1e84f3dd0314c0f7b2291e5b200ac8c7c3b92560405160405180910390a45b505b50505f90815260046020526040902080546001600160a01b0319166001600160a01b0392909216919091179055565b5f828152600260205260408120546001600160a01b0390811690831615610ecf57610ecf8184866111f5565b6001600160a01b03811615610f0957610eea5f855f5f610d9f565b6001600160a01b0381165f90815260036020526040902080545f190190555b6001600160a01b03851615610f37576001600160a01b0385165f908152600360205260409020805460010190555b5f8481526002602052604080822080546001600160a01b0319166001600160a01b0389811691821790925591518793918516917fddf252ad1be2c89b69c2b068fc378daa952ba7f163c4a11628f55a4df523b3ef91a4949350505050565b5f610f9f8361088b565b5f838152600760209081526040808320546001600160a01b0388168452600690925290912091925090818314610ff4575f83815260208281526040808320548584528184208190558352600790915290208290555b5f938452600760209081526040808620869055938552525081205550565b6008545f9061102390600190611734565b5f838152600960205260408120546008805493945090928490811061104a5761104a611672565b905f5260205f2001549050806008838154811061106957611069611672565b5f9182526020808320909101929092558281526009909152604080822084905585825281205560088054806110a0576110a0611747565b600190038181905f5260205f20015f9055905550505050565b5f60016110c58461088b565b6110cf9190611734565b6001600160a01b039093165f908152600660209081526040808320868452825280832085905593825260079052919091209190915550565b6111118383611259565b61069b335f858585610be7565b5f8072184f03e93ff9f4daa797ed6e38ed64bf6a1f0160401b831061115c5772184f03e93ff9f4daa797ed6e38ed64bf6a1f0160401b830492506040015b6d04ee2d6d415b85acef81000000008310611188576d04ee2d6d415b85acef8100000000830492506020015b662386f26fc1000083106111a657662386f26fc10000830492506010015b6305f5e10083106111be576305f5e100830492506008015b61271083106111d257612710830492506004015b606483106111e4576064830492506002015b600a83106103d35760010192915050565b6112008383836112ba565b61069b576001600160a01b03831661122e57604051637e27328960e01b8152600481018290526024016104e5565b60405163177e802f60e01b81526001600160a01b0383166004820152602481018290526044016104e5565b6001600160a01b03821661128257604051633250574960e11b81525f60048201526024016104e5565b5f61128e83835f610a34565b90506001600160a01b0381161561069b576040516339e3563760e11b81525f60048201526024016104e5565b5f6001600160a01b03831615801590610aff5750826001600160a01b0316846001600160a01b031614806112f357506112f38484610973565b80610aff5750505f908152600460205260409020546001600160a01b03908116911614919050565b6001600160e01b031981168114611330575f5ffd5b50565b5f60208284031215611343575f5ffd5b813561096c8161131b565b5f81518084528060208401602086015e5f602082860101526020601f19601f83011685010191505092915050565b602081525f61096c602083018461134e565b5f6020828403121561139e575f5ffd5b5035919050565b80356001600160a01b03811681146113bb575f5ffd5b919050565b5f5f604083850312156113d1575f5ffd5b6113da836113a5565b946020939093013593505050565b5f5f5f606084860312156113fa575f5ffd5b611403846113a5565b9250611411602085016113a5565b929592945050506040919091013590565b602080825282518282018190525f918401906040840190835b8181101561145957835183526020938401939092019160010161143b565b509095945050505050565b5f5f60408385031215611475575f5ffd5b50508035926020909101359150565b5f60208284031215611494575f5ffd5b61096c826113a5565b5f5f5f606084860312156114af575f5ffd5b6114b8846113a5565b925060208401359150604084013560ff811681146114d4575f5ffd5b809150509250925092565b5f5f604083850312156114f0575f5ffd5b6114f9836113a5565b91506020830135801515811461150d575f5ffd5b809150509250929050565b634e487b7160e01b5f52604160045260245ffd5b5f5f5f5f6080858703121561153f575f5ffd5b611548856113a5565b9350611556602086016113a5565b925060408501359150606085013567ffffffffffffffff811115611578575f5ffd5b8501601f81018713611588575f5ffd5b803567ffffffffffffffff8111156115a2576115a2611518565b604051601f8201601f19908116603f0116810167ffffffffffffffff811182821017156115d1576115d1611518565b6040528181528282016020018910156115e8575f5ffd5b816020840160208301375f6020838301015280935050505092959194509250565b5f5f6040838503121561161a575f5ffd5b611623836113a5565b9150611631602084016113a5565b90509250929050565b600181811c9082168061164e57607f821691505b60208210810361166c57634e487b7160e01b5f52602260045260245ffd5b50919050565b634e487b7160e01b5f52603260045260245ffd5b634e487b7160e01b5f52601160045260245ffd5b5f600182016116ab576116ab611686565b5060010190565b5f81518060208401855e5f93019283525090919050565b5f610aff6116d783866116b2565b846116b2565b6001600160a01b03858116825284166020820152604081018390526080606082018190525f9061170f9083018461134e565b9695505050505050565b5f60208284031215611729575f5ffd5b815161096c8161131b565b818103818111156103d3576103d3611686565b634e487b7160e01b5f52603160045260245ffdfea2646970667358221220682753b7f0d51384786fb46dbd98672c876014e13f67ee72b397ef45f294050a64736f6c634300081d0033",
  "linkReferences": {},
  "deployedLinkReferences": {}
}