{
  "_format": "hh-sol-artifact-1",
  "contractName": "DAO",
  "sourceName": "contracts/DAO.sol",
  "abi": [
    {
      "inputs": [],
      "name": "disputeCount",
      "outputs": [
        {
          "internalType": "uint256",
          "name": "",
          "type": "uint256"
        }
      ],
      "stateMutability": "view",
      "type": "function"
    },
    {
      "inputs": [
        {
          "internalType": "uint256",
          "name": "",
          "type": "uint256"
        }
      ],
      "name": "disputes",
      "outputs": [
        {
          "internalType": "uint256",
          "name": "jobId",
          "type": "uint256"
        },
        {
          "internalType": "uint256",
          "name": "votesClient",
          "type": "uint256"
        },
        {
          "internalType": "uint256",
          "name": "votesFreelancer",
          "type": "uint256"
        },
        {
          "internalType": "bool",
          "name": "resolved",
          "type": "bool"
        },
        {
          "internalType": "uint256",
          "name": "stakePerJuror",
          "type": "uint256"
        }
      ],
      "stateMutability": "view",
      "type": "function"
    },
    {
      "inputs": [],
      "name": "gestor",
      "outputs": [
        {
          "internalType": "address",
          "name": "",
          "type": "address"
        }
      ],
      "stateMutability": "view",
      "type": "function"
    },
    {
      "inputs": [
        {
          "internalType": "uint256",
          "name": "",
          "type": "uint256"
        },
        {
          "internalType": "address",
          "name": "",
          "type": "address"
        }
      ],
      "name": "hasVoted",
      "outputs": [
        {
          "internalType": "bool",
          "name": "",
          "type": "bool"
        }
      ],
      "stateMutability": "view",
      "type": "function"
    },
    {
      "inputs": [
        {
          "internalType": "uint256",
          "name": "jobId",
          "type": "uint256"
        },
        {
          "internalType": "uint256",
          "name": "guarantee",
          "type": "uint256"
        }
      ],
      "name": "openCase",
      "outputs": [],
      "stateMutability": "nonpayable",
      "type": "function"
    },
    {
      "inputs": [
        {
          "internalType": "address",
          "name": "_gestor",
          "type": "address"
        },
        {
          "internalType": "address",
          "name": "_staking",
          "type": "address"
        }
      ],
      "name": "setConfig",
      "outputs": [],
      "stateMutability": "nonpayable",
      "type": "function"
    },
    {
      "inputs": [],
      "name": "staking",
      "outputs": [
        {
          "internalType": "contract Staking",
          "name": "",
          "type": "address"
        }
      ],
      "stateMutability": "view",
      "type": "function"
    },
    {
      "inputs": [
        {
          "internalType": "uint256",
          "name": "disputeId",
          "type": "uint256"
        },
        {
          "internalType": "bool",
          "name": "voteFreelancerChoice",
          "type": "bool"
        }
      ],
      "name": "vote",
      "outputs": [],
      "stateMutability": "nonpayable",
      "type": "function"
    },
    {
      "inputs": [
        {
          "internalType": "uint256",
          "name": "",
          "type": "uint256"
        },
        {
          "internalType": "address",
          "name": "",
          "type": "address"
        }
      ],
      "name": "votedFreelancer",
      "outputs": [
        {
          "internalType": "bool",
          "name": "",
          "type": "bool"
        }
      ],
      "stateMutability": "view",
      "type": "function"
    },
    {
      "inputs": [
        {
          "internalType": "uint256",
          "name": "",
          "type": "uint256"
        },
        {
          "internalType": "uint256",
          "name": "",
          "type": "uint256"
        }
      ],
      "name": "voters",
      "outputs": [
        {
          "internalType": "address",
          "name": "",
          "type": "address"
        }
      ],
      "stateMutability": "view",
      "type": "function"
    }
  ],
  "bytecode": "0x6080604052348015600e575f5ffd5b50610b918061001c5f395ff3fe608060405234801561000f575f5ffd5b506004361061009b575f3560e01c8063a28889e111610063578063a28889e1146101a0578063b602024b146101b7578063be3b5394146101ca578063c9d27afe146101f7578063fba00cbd1461020a575f5ffd5b80631805dc0c1461009f57806343859632146100ce5780634cf088d91461010b578063564a565d1461011e578063977c26751461018b575b5f5ffd5b5f546100b1906001600160a01b031681565b6040516001600160a01b0390911681526020015b60405180910390f35b6100fb6100dc366004610a11565b600560209081525f928352604080842090915290825290205460ff1681565b60405190151581526020016100c5565b6001546100b1906001600160a01b031681565b61016161012c366004610a3b565b600360208190525f91825260409091208054600182015460028301549383015460049093015491939092909160ff9091169085565b6040805195865260208601949094529284019190915215156060830152608082015260a0016100c5565b61019e610199366004610a52565b61021d565b005b6101a960025481565b6040519081526020016100c5565b61019e6101c5366004610a72565b6102f4565b6100fb6101d8366004610a11565b600660209081525f928352604080842090915290825290205460ff1681565b61019e610205366004610a9a565b610367565b6100b1610218366004610a52565b610603565b5f546001600160a01b031633146102685760405162461bcd60e51b815260206004820152600a6024820152692737ba1033b2b9ba37b960b11b60448201526064015b60405180910390fd5b5f610274600a83610ae0565b6040805160a0810182528581525f60208083018281528385018381526060850184815260808601888152600280548752600395869052978620965187559251600187015590518587015551918401805460ff1916921515929092179091555160049092019190915581549293506102ea83610aff565b9190505550505050565b5f546001600160a01b03161561033a5760405162461bcd60e51b815260206004820152600b60248201526a105b1c9958591e481cd95d60aa1b604482015260640161025f565b5f80546001600160a01b039384166001600160a01b03199182161790915560018054929093169116179055565b5f8281526003602081905260409091209081015460ff16156103b65760405162461bcd60e51b815260206004820152600860248201526714995cdbdb1d995960c21b604482015260640161025f565b5f83815260056020908152604080832033845290915290205460ff161561040f5760405162461bcd60e51b815260206004820152600d60248201526c105b1c9958591e481d9bdd1959609a1b604482015260640161025f565b6004818101546001546040516305a4d3f160e21b8152339381019390935290916001600160a01b03909116906316934fc490602401602060405180830381865afa15801561045f573d5f5f3e3d5ffd5b505050506040513d601f19601f820116820180604052508101906104839190610b17565b10156104c45760405162461bcd60e51b815260206004820152601060248201526f4e6f7420656e6f756768207374616b6560801b604482015260640161025f565b60015460048281015460405163282d3fdf60e01b8152339281019290925260248201526001600160a01b039091169063282d3fdf906044015f604051808303815f87803b158015610513575f5ffd5b505af1158015610525573d5f5f3e3d5ffd5b5050505f8481526004602090815260408083208054600181810183559185528385200180546001600160a01b0319163390811790915588855260068452828520818652845282852080548915801560ff19928316179092558a8752600586528487209287529190945291909320805490911690921790915590506105be57600281018054905f6105b483610aff565b91905055506105d5565b600181018054905f6105cf83610aff565b91905055505b5f816002015482600101546105ea9190610b2e565b9050600381106105fd576105fd84610637565b50505050565b6004602052815f5260405f20818154811061061c575f80fd5b5f918252602090912001546001600160a01b03169150829050565b5f8181526003602081905260409091209081015460ff161561068e5760405162461bcd60e51b815260206004820152601060248201526f105b1c9958591e481c995cdbdb1d995960821b604482015260640161025f565b5f816001015482600201541190505f60045f8581526020019081526020015f2080548060200260200160405190810160405280929190818152602001828054801561070057602002820191905f5260205f20905b81546001600160a01b031681526001909101906020018083116106e2575b509394505f9350839250829150505b8351811015610800575f84828151811061072b5761072b610b47565b6020908102919091018101515f8a81526006835260408082206001600160a01b0384168352909352919091205490915060ff168615158115150361077b578361077381610aff565b9450506107f6565b6001546004898101546040516302fb4d8560e01b81526001600160a01b038681169382019390935260248101919091529116906302fb4d85906044015f604051808303815f87803b1580156107ce575f5ffd5b505af11580156107e0573d5f5f3e3d5ffd5b50505060048901546107f3915086610b2e565b94505b505060010161070f565b505f811161083d5760405162461bcd60e51b815260206004820152600a6024820152694e6f2077696e6e65727360b01b604482015260640161025f565b5f6108488284610ae0565b90505f5b845181101561097b575f85828151811061086857610868610b47565b6020908102919091018101515f8b81526006835260408082206001600160a01b0384168352909352919091205490915060ff16871515811515036109715760015460048a810154604051637eee288d60e01b81526001600160a01b03868116938201939093526024810191909152911690637eee288d906044015f604051808303815f87803b1580156108f9575f5ffd5b505af115801561090b573d5f5f3e3d5ffd5b50506001546040516310b3879160e11b81526001600160a01b0386811660048301526024820189905290911692506321670f2291506044015f604051808303815f87803b15801561095a575f5ffd5b505af115801561096c573d5f5f3e3d5ffd5b505050505b505060010161084c565b5060038601805460ff191660011790555f5486546040516306d1aa3d60e21b81526004810191909152861560248201526001600160a01b0390911690631b46a8f4906044015f604051808303815f87803b1580156109d7575f5ffd5b505af11580156109e9573d5f5f3e3d5ffd5b5050505050505050505050565b80356001600160a01b0381168114610a0c575f5ffd5b919050565b5f5f60408385031215610a22575f5ffd5b82359150610a32602084016109f6565b90509250929050565b5f60208284031215610a4b575f5ffd5b5035919050565b5f5f60408385031215610a63575f5ffd5b50508035926020909101359150565b5f5f60408385031215610a83575f5ffd5b610a8c836109f6565b9150610a32602084016109f6565b5f5f60408385031215610aab575f5ffd5b8235915060208301358015158114610ac1575f5ffd5b809150509250929050565b634e487b7160e01b5f52601160045260245ffd5b5f82610afa57634e487b7160e01b5f52601260045260245ffd5b500490565b5f60018201610b1057610b10610acc565b5060010190565b5f60208284031215610b27575f5ffd5b5051919050565b80820180821115610b4157610b41610acc565b92915050565b634e487b7160e01b5f52603260045260245ffdfea2646970667358221220e2521994e329deab0ca3f8dd49e29e54eceabbf9eda05a27b81224dae661153664736f6c634300081d0033",
  "linkReferences": {},
  "deployedLinkReferences": {}
}