{
  "_format": "hh-sol-artifact-1",
  "contractName": "GestorDeContratoGarantido",
  "sourceName": "contracts/GestorDeContratoGarantido.sol",
  "abi": [
    {
      "inputs": [
        {
          "internalType": "address",
          "name": "_token",
          "type": "address"
        },
        {
          "internalType": "address",
          "name": "_nft",
          "type": "address"
        },
        {
          "internalType": "address",
          "name": "_dao",
          "type": "address"
        }
      ],
      "stateMutability": "nonpayable",
      "type": "constructor"
    },
    {
      "inputs": [
        {
          "internalType": "address",
          "name": "owner",
          "type": "address"
        }
      ],
      "name": "OwnableInvalidOwner",
      "type": "error"
    },
    {
      "inputs": [
        {
          "internalType": "address",
          "name": "account",
          "type": "address"
        }
      ],
      "name": "OwnableUnauthorizedAccount",
      "type": "error"
    },
    {
      "inputs": [],
      "name": "ReentrancyGuardReentrantCall",
      "type": "error"
    },
    {
      "anonymous": false,
      "inputs": [
        {
          "indexed": true,
          "internalType": "address",
          "name": "previousOwner",
          "type": "address"
        },
        {
          "indexed": true,
          "internalType": "address",
          "name": "newOwner",
          "type": "address"
        }
      ],
      "name": "OwnershipTransferred",
      "type": "event"
    },
    {
      "inputs": [
        {
          "internalType": "uint256",
          "name": "jobId",
          "type": "uint256"
        }
      ],
      "name": "acceptJob",
      "outputs": [],
      "stateMutability": "nonpayable",
      "type": "function"
    },
    {
      "inputs": [
        {
          "internalType": "uint256",
          "name": "jobId",
          "type": "uint256"
        }
      ],
      "name": "approveWork",
      "outputs": [],
      "stateMutability": "nonpayable",
      "type": "function"
    },
    {
      "inputs": [
        {
          "internalType": "uint256",
          "name": "jobId",
          "type": "uint256"
        }
      ],
      "name": "cancelIfNotAccepted",
      "outputs": [],
      "stateMutability": "nonpayable",
      "type": "function"
    },
    {
      "inputs": [
        {
          "internalType": "uint256",
          "name": "jobId",
          "type": "uint256"
        }
      ],
      "name": "claimTimeout",
      "outputs": [],
      "stateMutability": "nonpayable",
      "type": "function"
    },
    {
      "inputs": [
        {
          "internalType": "uint256",
          "name": "_payment",
          "type": "uint256"
        },
        {
          "internalType": "uint256",
          "name": "_guarantee",
          "type": "uint256"
        },
        {
          "internalType": "uint256",
          "name": "_deadline",
          "type": "uint256"
        },
        {
          "internalType": "uint256",
          "name": "_acceptDeadline",
          "type": "uint256"
        }
      ],
      "name": "createJob",
      "outputs": [],
      "stateMutability": "nonpayable",
      "type": "function"
    },
    {
      "inputs": [],
      "name": "dao",
      "outputs": [
        {
          "internalType": "address",
          "name": "",
          "type": "address"
        }
      ],
      "stateMutability": "view",
      "type": "function"
    },
    {
      "inputs": [],
      "name": "feePercent",
      "outputs": [
        {
          "internalType": "uint256",
          "name": "",
          "type": "uint256"
        }
      ],
      "stateMutability": "view",
      "type": "function"
    },
    {
      "inputs": [],
      "name": "jobCount",
      "outputs": [
        {
          "internalType": "uint256",
          "name": "",
          "type": "uint256"
        }
      ],
      "stateMutability": "view",
      "type": "function"
    },
    {
      "inputs": [
        {
          "internalType": "uint256",
          "name": "",
          "type": "uint256"
        }
      ],
      "name": "jobs",
      "outputs": [
        {
          "internalType": "address",
          "name": "client",
          "type": "address"
        },
        {
          "internalType": "address",
          "name": "freelancer",
          "type": "address"
        },
        {
          "internalType": "uint256",
          "name": "payment",
          "type": "uint256"
        },
        {
          "internalType": "uint256",
          "name": "guarantee",
          "type": "uint256"
        },
        {
          "internalType": "uint256",
          "name": "deadline",
          "type": "uint256"
        },
        {
          "internalType": "uint256",
          "name": "delivered",
          "type": "uint256"
        },
        {
          "internalType": "uint256",
          "name": "acceptDeadline",
          "type": "uint256"
        },
        {
          "internalType": "enum GestorDeContratoGarantido.Status",
          "name": "status",
          "type": "uint8"
        }
      ],
      "stateMutability": "view",
      "type": "function"
    },
    {
      "inputs": [
        {
          "internalType": "uint256",
          "name": "jobId",
          "type": "uint256"
        }
      ],
      "name": "markDelivered",
      "outputs": [],
      "stateMutability": "nonpayable",
      "type": "function"
    },
    {
      "inputs": [],
      "name": "nft",
      "outputs": [
        {
          "internalType": "contract ContractNFT",
          "name": "",
          "type": "address"
        }
      ],
      "stateMutability": "view",
      "type": "function"
    },
    {
      "inputs": [
        {
          "internalType": "uint256",
          "name": "jobId",
          "type": "uint256"
        }
      ],
      "name": "openDispute",
      "outputs": [],
      "stateMutability": "nonpayable",
      "type": "function"
    },
    {
      "inputs": [],
      "name": "owner",
      "outputs": [
        {
          "internalType": "address",
          "name": "",
          "type": "address"
        }
      ],
      "stateMutability": "view",
      "type": "function"
    },
    {
      "inputs": [],
      "name": "renounceOwnership",
      "outputs": [],
      "stateMutability": "nonpayable",
      "type": "function"
    },
    {
      "inputs": [
        {
          "internalType": "uint256",
          "name": "jobId",
          "type": "uint256"
        },
        {
          "internalType": "bool",
          "name": "clientWins",
          "type": "bool"
        }
      ],
      "name": "resolveFromDAO",
      "outputs": [],
      "stateMutability": "nonpayable",
      "type": "function"
    },
    {
      "inputs": [],
      "name": "token",
      "outputs": [
        {
          "internalType": "contract TelToken",
          "name": "",
          "type": "address"
        }
      ],
      "stateMutability": "view",
      "type": "function"
    },
    {
      "inputs": [
        {
          "internalType": "address",
          "name": "newOwner",
          "type": "address"
        }
      ],
      "name": "transferOwnership",
      "outputs": [],
      "stateMutability": "nonpayable",
      "type": "function"
    }
  ],
  "bytecode": "0x60806040526002600555348015610014575f5ffd5b5060405161133238038061133283398101604081905261003391610132565b338061005857604051631e4fbdf760e01b81525f600482015260240160405180910390fd5b610061816100c8565b5060017f9b779b17422d0df92223018b32b4d1fa46e071723d6817e2486d003becc55f0055600180546001600160a01b039485166001600160a01b031991821617909155600280549385169382169390931790925560038054919093169116179055610172565b5f80546001600160a01b038381166001600160a01b0319831681178455604051919092169283917f8be0079c531659141344cd1fd0a4f28419497f9722a3daafe3b4186f6b6457e09190a35050565b80516001600160a01b038116811461012d575f5ffd5b919050565b5f5f5f60608486031215610144575f5ffd5b61014d84610117565b925061015b60208501610117565b915061016960408501610117565b90509250925092565b6111b38061017f5f395ff3fe608060405234801561000f575f5ffd5b5060043610610106575f3560e01c80634c5d8a0f1161009e57806386e773f11161006e57806386e773f1146102625780638da5cb5b14610275578063eb826a5f14610285578063f2fde38b14610298578063fc0c546a146102ab575f5ffd5b80634c5d8a0f1461022757806363b2f3c91461023e578063715018a6146102515780637fd6f15c14610259575f5ffd5b806327d00fb0116100d957806327d00fb0146101c35780633d01e0fa146101d65780634162169f146101e957806347ccca0214610214575f5ffd5b8063026afedf1461010a5780630ad33a001461011f578063180aedf3146101325780631b46a8f4146101b0575b5f5ffd5b61011d610118366004610f5c565b6102be565b005b61011d61012d366004610f8b565b6105f6565b610193610140366004610f8b565b600660208190525f9182526040909120805460018201546002830154600384015460048501546005860154968601546007909601546001600160a01b039586169795909416959294919390929060ff1688565b6040516101a7989796959493929190610fb6565b60405180910390f35b61011d6101be36600461102e565b610727565b61011d6101d1366004610f8b565b6108ba565b61011d6101e4366004610f8b565b6109d7565b6003546101fc906001600160a01b031681565b6040516001600160a01b0390911681526020016101a7565b6002546101fc906001600160a01b031681565b61023060045481565b6040519081526020016101a7565b61011d61024c366004610f8b565b610ad9565b61011d610c92565b61023060055481565b61011d610270366004610f8b565b610ca5565b5f546001600160a01b03166101fc565b61011d610293366004610f8b565b610db2565b61011d6102a636600461105c565b610e5d565b6001546101fc906001600160a01b031681565b6102c6610e97565b5f841161030c5760405162461bcd60e51b815260206004820152600f60248201526e125b9d985b1a59081c185e5b595b9d608a1b60448201526064015b60405180910390fd5b5f60646005548661031d919061109d565b61032791906110ba565b90505f61033482876110d9565b6001546040516323b872dd60e01b8152336004820152306024820152604481018390529192506001600160a01b0316906323b872dd906064016020604051808303815f875af1158015610389573d5f5f3e3d5ffd5b505050506040513d601f19601f820116820180604052508101906103ad91906110ec565b506001546001600160a01b031663a9059cbb6103d05f546001600160a01b031690565b6040516001600160e01b031960e084901b1681526001600160a01b039091166004820152602481018590526044016020604051808303815f875af115801561041a573d5f5f3e3d5ffd5b505050506040513d601f19601f8201168201806040525081019061043e91906110ec565b50604051806101000160405280336001600160a01b031681526020015f6001600160a01b031681526020018781526020018681526020018581526020015f81526020018481526020015f600681111561049957610499610fa2565b9052600480545f90815260066020818152604092839020855181546001600160a01b039182166001600160a01b0319918216178355928701516001808401805492909316919094161790559285015160028401556060850151600384015560808501519383019390935560a0840151600583015560c08401518282015560e084015160078301805493949193909260ff199091169190849081111561054057610540610fa2565b02179055505060025460048054604051631844ba2b60e21b8152339281019290925260248201525f60448201526001600160a01b039091169150636112e8ac906064016020604051808303815f875af115801561059f573d5f5f3e3d5ffd5b505050506040513d601f19601f820116820180604052508101906105c39190611107565b5060048054905f6105d38361111e565b919050555050506105f060015f51602061115e5f395f51905f5255565b50505050565b6105fe610e97565b5f81815260066020526040812090600782015460ff16600681111561062557610625610fa2565b146106425760405162461bcd60e51b815260040161030390611136565b806006015442116106815760405162461bcd60e51b8152602060048201526009602482015268546f6f206561726c7960b81b6044820152606401610303565b60078101805460ff191660061790556001548154600283015460405163a9059cbb60e01b81526001600160a01b039283166004820152602481019190915291169063a9059cbb906044015b6020604051808303815f875af11580156106e8573d5f5f3e3d5ffd5b505050506040513d601f19601f8201168201806040525081019061070c91906110ec565b505061072460015f51602061115e5f395f51905f5255565b50565b6003546001600160a01b0316331461076b5760405162461bcd60e51b81526020600482015260076024820152664e6f742044414f60c81b6044820152606401610303565b5f828152600660205260409020811561080c576001548154600383015460405163a9059cbb60e01b81526001600160a01b039283166004820152602481019190915291169063a9059cbb906044016020604051808303815f875af11580156107d5573d5f5f3e3d5ffd5b505050506040513d601f19601f820116820180604052508101906107f991906110ec565b50600701805460ff191660051790555050565b6001805490820154600383015460028401546001600160a01b039384169363a9059cbb93169161083b916110d9565b6040516001600160e01b031960e085901b1681526001600160a01b03909216600483015260248201526044016020604051808303815f875af1158015610883573d5f5f3e3d5ffd5b505050506040513d601f19601f820116820180604052508101906108a791906110ec565b50600701805460ff191660041790555050565b5f81815260066020526040902080546001600160a01b03163314806108eb575060018101546001600160a01b031633145b6109255760405162461bcd60e51b815260206004820152600b60248201526a139bdd08185b1b1bddd95960aa1b6044820152606401610303565b6002600782015460ff16600681111561094057610940610fa2565b1461095d5760405162461bcd60e51b815260040161030390611136565b60078101805460ff1916600390811790915580549082015460405163977c267560e01b81526004810185905260248101919091526001600160a01b039091169063977c2675906044015f604051808303815f87803b1580156109bd575f5ffd5b505af11580156109cf573d5f5f3e3d5ffd5b505050505050565b6109df610e97565b5f81815260066020526040902080546001600160a01b03163314610a325760405162461bcd60e51b815260206004820152600a602482015269139bdd0818db1a595b9d60b21b6044820152606401610303565b6002600782015460ff166006811115610a4d57610a4d610fa2565b14610a6a5760405162461bcd60e51b815260040161030390611136565b60078101805460ff191660041790556001805490820154600383015460028401546001600160a01b039384169363a9059cbb931691610aa8916110d9565b6040516001600160e01b031960e085901b1681526001600160a01b03909216600483015260248201526044016106cc565b610ae1610e97565b5f81815260066020526040812090600782015460ff166006811115610b0857610b08610fa2565b14610b255760405162461bcd60e51b815260040161030390611136565b8060060154421115610b635760405162461bcd60e51b8152602060048201526007602482015266115e1c1a5c995960ca1b6044820152606401610303565b60015460038201546040516323b872dd60e01b815233600482015230602482015260448101919091526001600160a01b03909116906323b872dd906064016020604051808303815f875af1158015610bbd573d5f5f3e3d5ffd5b505050506040513d601f19601f82011682018060405250810190610be191906110ec565b50600254604051631844ba2b60e21b815233600482015260248101849052600160448201526001600160a01b0390911690636112e8ac906064016020604051808303815f875af1158015610c37573d5f5f3e3d5ffd5b505050506040513d601f19601f82011682018060405250810190610c5b9190611107565b50600181810180546001600160a01b031916331790556007909101805460ff1916821790555f51602061115e5f395f51905f525550565b610c9a610eb2565b610ca35f610ede565b565b610cad610e97565b5f81815260066020526040902080546001600160a01b03163314610d005760405162461bcd60e51b815260206004820152600a602482015269139bdd0818db1a595b9d60b21b6044820152606401610303565b6001600782015460ff166006811115610d1b57610d1b610fa2565b14610d385760405162461bcd60e51b815260040161030390611136565b80600401544211610d775760405162461bcd60e51b8152602060048201526009602482015268546f6f206561726c7960b81b6044820152606401610303565b60078101805460ff191660051790556001548154600383015460028401546001600160a01b039384169363a9059cbb931691610aa8916110d9565b5f81815260066020526040902060018101546001600160a01b03163314610e0c5760405162461bcd60e51b815260206004820152600e60248201526d2737ba10333932b2b630b731b2b960911b6044820152606401610303565b6001600782015460ff166006811115610e2757610e27610fa2565b14610e445760405162461bcd60e51b815260040161030390611136565b60078101805460ff191660021790554260059091015550565b610e65610eb2565b6001600160a01b038116610e8e57604051631e4fbdf760e01b81525f6004820152602401610303565b61072481610ede565b610e9f610f2d565b60025f51602061115e5f395f51905f5255565b5f546001600160a01b03163314610ca35760405163118cdaa760e01b8152336004820152602401610303565b5f80546001600160a01b038381166001600160a01b0319831681178455604051919092169283917f8be0079c531659141344cd1fd0a4f28419497f9722a3daafe3b4186f6b6457e09190a35050565b5f51602061115e5f395f51905f5254600203610ca357604051633ee5aeb560e01b815260040160405180910390fd5b5f5f5f5f60808587031215610f6f575f5ffd5b5050823594602084013594506040840135936060013592509050565b5f60208284031215610f9b575f5ffd5b5035919050565b634e487b7160e01b5f52602160045260245ffd5b6001600160a01b0389811682528816602082015260408101879052606081018690526080810185905260a0810184905260c0810183905261010081016007831061100e57634e487b7160e01b5f52602160045260245ffd5b8260e08301529998505050505050505050565b8015158114610724575f5ffd5b5f5f6040838503121561103f575f5ffd5b82359150602083013561105181611021565b809150509250929050565b5f6020828403121561106c575f5ffd5b81356001600160a01b0381168114611082575f5ffd5b9392505050565b634e487b7160e01b5f52601160045260245ffd5b80820281158282048414176110b4576110b4611089565b92915050565b5f826110d457634e487b7160e01b5f52601260045260245ffd5b500490565b808201808211156110b4576110b4611089565b5f602082840312156110fc575f5ffd5b815161108281611021565b5f60208284031215611117575f5ffd5b5051919050565b5f6001820161112f5761112f611089565b5060010190565b6020808252600d908201526c496e76616c696420737461746560981b60408201526060019056fe9b779b17422d0df92223018b32b4d1fa46e071723d6817e2486d003becc55f00a2646970667358221220084e62a43777fbdd799d0722dd42c035a5511f16ab1c17e37af79d2ea91c51c464736f6c634300081d0033",
  "linkReferences": {},
  "deployedLinkReferences": {}
}