{
  "_format": "hh-sol-artifact-1",
  "contractName": "Staking",
  "sourceName": "contracts/Staking.sol",
  "abi": [
    {
      "inputs": [
        {
          "internalType": "address",
          "name": "_token",
          "type": "address"
        }
      ],
      "stateMutability": "nonpayable",
      "type": "constructor"
    },
    {
      "inputs": [],
      "name": "ReentrancyGuardReentrantCall",
      "type": "error"
    },
    {
      "inputs": [],
      "name": "dao",
      "outputs": [
        {
          "internalType": "address",
          "name": "",
          "type": "address"
        }
      ],
      "stateMutability": "view",
      "type": "function"
    },
    {
      "inputs": [
        {
          "internalType": "address",
          "name": "user",
          "type": "address"
        },
        {
          "internalType": "uint256",
          "name": "amount",
          "type": "uint256"
        }
      ],
      "name": "lock",
      "outputs": [],
      "stateMutability": "nonpayable",
      "type": "function"
    },
    {
      "inputs": [
        {
          "internalType": "address",
          "name": "",
          "type": "address"
        }
      ],
      "name": "locked",
      "outputs": [
        {
          "internalType": "uint256",
          "name": "",
          "type": "uint256"
        }
      ],
      "stateMutability": "view",
      "type": "function"
    },
    {
      "inputs": [
        {
          "internalType": "address",
          "name": "user",
          "type": "address"
        },
        {
          "internalType": "uint256",
          "name": "amount",
          "type": "uint256"
        }
      ],
      "name": "reward",
      "outputs": [],
      "stateMutability": "nonpayable",
      "type": "function"
    },
    {
      "inputs": [
        {
          "internalType": "address",
          "name": "_dao",
          "type": "address"
        }
      ],
      "name": "setDAO",
      "outputs": [],
      "stateMutability": "nonpayable",
      "type": "function"
    },
    {
      "inputs": [
        {
          "internalType": "address",
          "name": "user",
          "type": "address"
        },
        {
          "internalType": "uint256",
          "name": "amount",
          "type": "uint256"
        }
      ],
      "name": "slash",
      "outputs": [],
      "stateMutability": "nonpayable",
      "type": "function"
    },
    {
      "inputs": [
        {
          "internalType": "uint256",
          "name": "amount",
          "type": "uint256"
        }
      ],
      "name": "stake",
      "outputs": [],
      "stateMutability": "nonpayable",
      "type": "function"
    },
    {
      "inputs": [
        {
          "internalType": "address",
          "name": "",
          "type": "address"
        }
      ],
      "name": "stakes",
      "outputs": [
        {
          "internalType": "uint256",
          "name": "",
          "type": "uint256"
        }
      ],
      "stateMutability": "view",
      "type": "function"
    },
    {
      "inputs": [],
      "name": "token",
      "outputs": [
        {
          "internalType": "contract IERC20",
          "name": "",
          "type": "address"
        }
      ],
      "stateMutability": "view",
      "type": "function"
    },
    {
      "inputs": [
        {
          "internalType": "address",
          "name": "user",
          "type": "address"
        },
        {
          "internalType": "uint256",
          "name": "amount",
          "type": "uint256"
        }
      ],
      "name": "unlock",
      "outputs": [],
      "stateMutability": "nonpayable",
      "type": "function"
    },
    {
      "inputs": [
        {
          "internalType": "uint256",
          "name": "amount",
          "type": "uint256"
        }
      ],
      "name": "unstake",
      "outputs": [],
      "stateMutability": "nonpayable",
      "type": "function"
    }
  ],
  "bytecode": "0x6080604052348015600e575f5ffd5b50604051610975380380610975833981016040819052602b916072565b60017f9b779b17422d0df92223018b32b4d1fa46e071723d6817e2486d003becc55f00555f80546001600160a01b0319166001600160a01b0392909216919091179055609d565b5f602082840312156081575f5ffd5b81516001600160a01b03811681146096575f5ffd5b9392505050565b6108cb806100aa5f395ff3fe608060405234801561000f575f5ffd5b50600436106100a6575f3560e01c80634162169f1161006e5780634162169f1461012a5780637eee288d14610155578063a694fc3a14610168578063cbf9fe5f1461017b578063e73a914c1461019a578063fc0c546a146101ad575f5ffd5b806302fb4d85146100aa57806316934fc4146100bf57806321670f22146100f1578063282d3fdf146101045780632e17de7814610117575b5f5ffd5b6100bd6100b8366004610796565b6101bf565b005b6100de6100cd3660046107be565b60026020525f908152604090205481565b6040519081526020015b60405180910390f35b6100bd6100ff366004610796565b61027d565b6100bd610112366004610796565b61031f565b6100bd6101253660046107de565b6103f6565b60015461013d906001600160a01b031681565b6040516001600160a01b0390911681526020016100e8565b6100bd610163366004610796565b6104f7565b6100bd6101763660046107de565b6105cf565b6100de6101893660046107be565b60036020525f908152604090205481565b6100bd6101a83660046107be565b6106c6565b5f5461013d906001600160a01b031681565b6001546001600160a01b031633146101f25760405162461bcd60e51b81526004016101e9906107f5565b60405180910390fd5b6001600160a01b0382165f9081526003602052604090205481111561024d5760405162461bcd60e51b8152602060048201526011602482015270139bdd08195b9bdd59da081b1bd8dad959607a1b60448201526064016101e9565b6001600160a01b0382165f908152600360205260408120805483929061027490849061082a565b90915550505050565b6001546001600160a01b031633146102a75760405162461bcd60e51b81526004016101e9906107f5565b5f5460405163a9059cbb60e01b81526001600160a01b038481166004830152602482018490529091169063a9059cbb906044016020604051808303815f875af11580156102f6573d5f5f3e3d5ffd5b505050506040513d601f19601f8201168201806040525081019061031a9190610843565b505050565b6001546001600160a01b031633146103495760405162461bcd60e51b81526004016101e9906107f5565b6001600160a01b0382165f908152600260205260409020548111156103a35760405162461bcd60e51b815260206004820152601060248201526f4e6f7420656e6f756768207374616b6560801b60448201526064016101e9565b6001600160a01b0382165f90815260026020526040812080548392906103ca90849061082a565b90915550506001600160a01b0382165f9081526003602052604081208054839290610274908490610862565b6103fe61072f565b335f908152600260205260409020548111156104495760405162461bcd60e51b815260206004820152600a60248201526909cdee840cadcdeeaced60b31b60448201526064016101e9565b335f908152600260205260408120805483929061046790849061082a565b90915550505f5460405163a9059cbb60e01b8152336004820152602481018390526001600160a01b039091169063a9059cbb906044016020604051808303815f875af11580156104b9573d5f5f3e3d5ffd5b505050506040513d601f19601f820116820180604052508101906104dd9190610843565b506104f460015f5160206108765f395f51905f5255565b50565b6001546001600160a01b031633146105215760405162461bcd60e51b81526004016101e9906107f5565b6001600160a01b0382165f9081526003602052604090205481111561057c5760405162461bcd60e51b8152602060048201526011602482015270139bdd08195b9bdd59da081b1bd8dad959607a1b60448201526064016101e9565b6001600160a01b0382165f90815260036020526040812080548392906105a390849061082a565b90915550506001600160a01b0382165f9081526002602052604081208054839290610274908490610862565b6105d761072f565b5f81116106175760405162461bcd60e51b815260206004820152600e60248201526d125b9d985b1a5908185b5bdd5b9d60921b60448201526064016101e9565b5f546040516323b872dd60e01b8152336004820152306024820152604481018390526001600160a01b03909116906323b872dd906064016020604051808303815f875af115801561066a573d5f5f3e3d5ffd5b505050506040513d601f19601f8201168201806040525081019061068e9190610843565b50335f90815260026020526040812080548392906106ad908490610862565b909155505060015f5160206108765f395f51905f525550565b6001546001600160a01b03161561070d5760405162461bcd60e51b815260206004820152600b60248201526a105b1c9958591e481cd95d60aa1b60448201526064016101e9565b600180546001600160a01b0319166001600160a01b0392909216919091179055565b61073761074a565b60025f5160206108765f395f51905f5255565b5f5160206108765f395f51905f525460020361077957604051633ee5aeb560e01b815260040160405180910390fd5b565b80356001600160a01b0381168114610791575f5ffd5b919050565b5f5f604083850312156107a7575f5ffd5b6107b08361077b565b946020939093013593505050565b5f602082840312156107ce575f5ffd5b6107d78261077b565b9392505050565b5f602082840312156107ee575f5ffd5b5035919050565b6020808252600790820152664e6f742044414f60c81b604082015260600190565b634e487b7160e01b5f52601160045260245ffd5b8181038181111561083d5761083d610816565b92915050565b5f60208284031215610853575f5ffd5b815180151581146107d7575f5ffd5b8082018082111561083d5761083d61081656fe9b779b17422d0df92223018b32b4d1fa46e071723d6817e2486d003becc55f00a264697066735822122028d435f2241355b6e49c30ed30335bc15a738157aa55bede196f5a8e6d8dc70f64736f6c634300081d0033",
  "linkReferences": {},
  "deployedLinkReferences": {}
}