{
  "_format": "hh-sol-artifact-1",
  "contractName": "TokenSale",
  "sourceName": "contracts/TokenSale.sol",
  "abi": [
    {
      "inputs": [
        {
          "internalType": "address",
          "name": "_token",
          "type": "address"
        },
        {
          "internalType": "address",
          "name": "_priceFeed",
          "type": "address"
        }
      ],
      "stateMutability": "nonpayable",
      "type": "constructor"
    },
    {
      "inputs": [
        {
          "internalType": "address",
          "name": "owner",
          "type": "address"
        }
      ],
      "name": "OwnableInvalidOwner",
      "type": "error"
    },
    {
      "inputs": [
        {
          "internalType": "address",
          "name": "account",
          "type": "address"
        }
      ],
      "name": "OwnableUnauthorizedAccount",
      "type": "error"
    },
    {
      "inputs": [],
      "name": "ReentrancyGuardReentrantCall",
      "type": "error"
    },
    {
      "anonymous": false,
      "inputs": [
        {
          "indexed": true,
          "internalType": "address",
          "name": "previousOwner",
          "type": "address"
        },
        {
          "indexed": true,
          "internalType": "address",
          "name": "newOwner",
          "type": "address"
        }
      ],
      "name": "OwnershipTransferred",
      "type": "event"
    },
    {
      "inputs": [],
      "name": "buyTokens",
      "outputs": [],
      "stateMutability": "payable",
      "type": "function"
    },
    {
      "inputs": [],
      "name": "deposit",
      "outputs": [],
      "stateMutability": "payable",
      "type": "function"
    },
    {
      "inputs": [],
      "name": "getContractEthBalance",
      "outputs": [
        {
          "internalType": "uint256",
          "name": "",
          "type": "uint256"
        }
      ],
      "stateMutability": "view",
      "type": "function"
    },
    {
      "inputs": [],
      "name": "getEthUsdPrice",
      "outputs": [
        {
          "internalType": "uint256",
          "name": "",
          "type": "uint256"
        }
      ],
      "stateMutability": "view",
      "type": "function"
    },
    {
      "inputs": [],
      "name": "getTelPerEth",
      "outputs": [
        {
          "internalType": "uint256",
          "name": "",
          "type": "uint256"
        }
      ],
      "stateMutability": "view",
      "type": "function"
    },
    {
      "inputs": [],
      "name": "getTelPerUsd",
      "outputs": [
        {
          "internalType": "uint256",
          "name": "",
          "type": "uint256"
        }
      ],
      "stateMutability": "view",
      "type": "function"
    },
    {
      "inputs": [],
      "name": "owner",
      "outputs": [
        {
          "internalType": "address",
          "name": "",
          "type": "address"
        }
      ],
      "stateMutability": "view",
      "type": "function"
    },
    {
      "inputs": [],
      "name": "rate",
      "outputs": [
        {
          "internalType": "uint256",
          "name": "",
          "type": "uint256"
        }
      ],
      "stateMutability": "view",
      "type": "function"
    },
    {
      "inputs": [],
      "name": "renounceOwnership",
      "outputs": [],
      "stateMutability": "nonpayable",
      "type": "function"
    },
    {
      "inputs": [
        {
          "internalType": "uint256",
          "name": "telsAmount",
          "type": "uint256"
        }
      ],
      "name": "sellTokens",
      "outputs": [],
      "stateMutability": "nonpayable",
      "type": "function"
    },
    {
      "inputs": [
        {
          "internalType": "uint256",
          "name": "telsAmount",
          "type": "uint256"
        }
      ],
      "name": "telToUsd",
      "outputs": [
        {
          "internalType": "uint256",
          "name": "",
          "type": "uint256"
        }
      ],
      "stateMutability": "view",
      "type": "function"
    },
    {
      "inputs": [],
      "name": "token",
      "outputs": [
        {
          "internalType": "contract TelToken",
          "name": "",
          "type": "address"
        }
      ],
      "stateMutability": "view",
      "type": "function"
    },
    {
      "inputs": [
        {
          "internalType": "address",
          "name": "newOwner",
          "type": "address"
        }
      ],
      "name": "transferOwnership",
      "outputs": [],
      "stateMutability": "nonpayable",
      "type": "function"
    },
    {
      "stateMutability": "payable",
      "type": "receive"
    }
  ],
  "bytecode": "0x6080604052620f4240600155348015610016575f5ffd5b50604051610bcd380380610bcd83398101604081905261003591610123565b338061005a57604051631e4fbdf760e01b81525f600482015260240160405180910390fd5b610063816100b9565b5060017f9b779b17422d0df92223018b32b4d1fa46e071723d6817e2486d003becc55f0055600280546001600160a01b039384166001600160a01b03199182161790915560038054929093169116179055610154565b5f80546001600160a01b038381166001600160a01b0319831681178455604051919092169283917f8be0079c531659141344cd1fd0a4f28419497f9722a3daafe3b4186f6b6457e09190a35050565b80516001600160a01b038116811461011e575f5ffd5b919050565b5f5f60408385031215610134575f5ffd5b61013d83610108565b915061014b60208401610108565b90509250929050565b610a6c806101615f395ff3fe6080604052600436106100c2575f3560e01c80639f8fcd5a1161007c578063d0e30db011610057578063d0e30db014610202578063d0febe4c1461020a578063f2fde38b14610212578063fc0c546a14610231575f5ffd5b80639f8fcd5a146101c6578063a0a8045e146101da578063b079fc68146101ee575f5ffd5b80632c4e722e146101085780634de57d75146101305780636c11bcd314610142578063715018a6146101635780638696b5de146101775780638da5cb5b14610196575f5ffd5b366101045760405162461bcd60e51b815260206004820152600d60248201526c557365206465706f736974282960981b60448201526064015b60405180910390fd5b5f5ffd5b348015610113575f5ffd5b5061011d60015481565b6040519081526020015b60405180910390f35b34801561013b575f5ffd5b504761011d565b34801561014d575f5ffd5b5061016161015c3660046108f0565b610250565b005b34801561016e575f5ffd5b50610161610519565b348015610182575f5ffd5b5061011d6101913660046108f0565b61052c565b3480156101a1575f5ffd5b505f546001600160a01b03165b6040516001600160a01b039091168152602001610127565b3480156101d1575f5ffd5b5061011d61056c565b3480156101e5575f5ffd5b5061011d61059d565b3480156101f9575f5ffd5b5060015461011d565b61016161065d565b610161610665565b34801561021d575f5ffd5b5061016161022c366004610907565b6107f1565b34801561023c575f5ffd5b506002546101ae906001600160a01b031681565b61025861082b565b5f811161029c5760405162461bcd60e51b81526020600482015260126024820152710416d6f756e74206d757374206265203e20360741b60448201526064016100fb565b5f600154826102ab9190610941565b9050804710156102ee5760405162461bcd60e51b815260206004820152600e60248201526d09cdee840cadcdeeaced0408aa8960931b60448201526064016100fb565b5f6102fa606483610941565b90505f6103078284610960565b6002546040516323b872dd60e01b8152336004820152306024820152604481018790529192506001600160a01b0316906323b872dd906064016020604051808303815f875af115801561035c573d5f5f3e3d5ffd5b505050506040513d601f19601f820116820180604052508101906103809190610979565b50600254604051630852cd8d60e31b8152600481018690526001600160a01b03909116906342966c68906024015f604051808303815f87803b1580156103c4575f5ffd5b505af11580156103d6573d5f5f3e3d5ffd5b50506040515f925033915083908381818185875af1925050503d805f8114610419576040519150601f19603f3d011682016040523d82523d5f602084013e61041e565b606091505b50509050806104655760405162461bcd60e51b8152602060048201526013602482015272115512081d1c985b9cd9995c8819985a5b1959606a1b60448201526064016100fb565b5f80546040516001600160a01b039091169085908381818185875af1925050503d805f81146104af576040519150601f19603f3d011682016040523d82523d5f602084013e6104b4565b606091505b50509050806104fb5760405162461bcd60e51b8152602060048201526013602482015272119959481d1c985b9cd9995c8819985a5b1959606a1b60448201526064016100fb565b505050505061051660015f516020610a175f395f51905f5255565b50565b610521610846565b61052a5f610872565b565b5f5f61053661059d565b90505f600154846105479190610941565b90505f6305f5e1006105598484610998565b6105639190610941565b95945050505050565b5f5f61057661059d565b90505f816001546305f5e10061058c9190610998565b6105969190610941565b9392505050565b5f5f60035f9054906101000a90046001600160a01b03166001600160a01b031663feaf968c6040518163ffffffff1660e01b815260040160a060405180830381865afa1580156105ef573d5f5f3e3d5ffd5b505050506040513d601f19601f8201168201806040525081019061061391906109c8565b5050509150505f81136106585760405162461bcd60e51b815260206004820152600d60248201526c496e76616c696420707269636560981b60448201526064016100fb565b919050565b61052a610846565b61066d61082b565b5f34116106a75760405162461bcd60e51b81526020600482015260086024820152670a6cadcc8408aa8960c31b60448201526064016100fb565b5f6106b3606434610941565b90505f6106c08234610960565b90505f600154826106d19190610998565b90505f6106e55f546001600160a01b031690565b6001600160a01b0316846040515f6040518083038185875af1925050503d805f811461072c576040519150601f19603f3d011682016040523d82523d5f602084013e610731565b606091505b50509050806107785760405162461bcd60e51b8152602060048201526013602482015272119959481d1c985b9cd9995c8819985a5b1959606a1b60448201526064016100fb565b6002546040516340c10f1960e01b8152336004820152602481018490526001600160a01b03909116906340c10f19906044015f604051808303815f87803b1580156107c1575f5ffd5b505af11580156107d3573d5f5f3e3d5ffd5b505050505050505061052a60015f516020610a175f395f51905f5255565b6107f9610846565b6001600160a01b03811661082257604051631e4fbdf760e01b81525f60048201526024016100fb565b61051681610872565b6108336108c1565b60025f516020610a175f395f51905f5255565b5f546001600160a01b0316331461052a5760405163118cdaa760e01b81523360048201526024016100fb565b5f80546001600160a01b038381166001600160a01b0319831681178455604051919092169283917f8be0079c531659141344cd1fd0a4f28419497f9722a3daafe3b4186f6b6457e09190a35050565b5f516020610a175f395f51905f525460020361052a57604051633ee5aeb560e01b815260040160405180910390fd5b5f60208284031215610900575f5ffd5b5035919050565b5f60208284031215610917575f5ffd5b81356001600160a01b0381168114610596575f5ffd5b634e487b7160e01b5f52601160045260245ffd5b5f8261095b57634e487b7160e01b5f52601260045260245ffd5b500490565b818103818111156109735761097361092d565b92915050565b5f60208284031215610989575f5ffd5b81518015158114610596575f5ffd5b80820281158282048414176109735761097361092d565b805169ffffffffffffffffffff81168114610658575f5ffd5b5f5f5f5f5f60a086880312156109dc575f5ffd5b6109e5866109af565b60208701516040880151606089015192975090955093509150610a0a608087016109af565b9050929550929590935056fe9b779b17422d0df92223018b32b4d1fa46e071723d6817e2486d003becc55f00a2646970667358221220729d1aca1546d16d6cc55f01e153be215f6bba0137d36dbe1855f7b3e9e9ded964736f6c634300081d0033",
  "linkReferences": {},
  "deployedLinkReferences": {}
}